:1000000080311B2800002030850006308400000865
:10001000031918280130A100A001A00B0D28A10B85
:100020000C284A30A000A00B13281628800B0A28A1
:10003000080080313C286A302100990023008C019F
:1000400022009201910121000C1022000C100430BA
:100050002000A500FA30A6000320A50B2A282100C5
:100060000C1022000C1404302000A500FA30A60069
:0E0070000320A50B3628192822002328630040
:020000040001F9
:04000E008439FF1E14
:00000001FF
;PIC12F1822
;CRC=73B0  CREATED="23-mai-20 21:55"
